:1000000071C00000BDC00000D7C00000ECC00000FF
:1000100088C0000086C0000084C0000082C00000CC
:1000200080C000007EC000007CC000007AC00000DC
:1000300078C0000076C0000074C0000072C00000EC
:1000400070C000006EC000006CC000006AC00000FC
:10005000DFC0000066C0000064C00000DAC200001B
:1000600060C000001FC300005CC000005AC0000058
:1000700058C0000056C0000054C0000052C000002C
:1000800050C000004EC000004CC000004AC000003C
:1000900048C0000046C0000044C0000042C000004C
:1000A00040C000003EC000003CC000003AC000005C
:1000B00038C0000036C0000034C0000032C000006C
:1000C00030C000002EC000002CC000002AC000007C
:1000D00028C0000026C0000024C0000022C000008C
:1000E00020C0000011241FBECFEFD1E2DEBFCDBF84
:1000F00000E00CBF12E0A0E0B2E0ECE6FFE000E0C0
:100100000BBF02C007900D92A23FB107D9F723E0C1
:10011000A2EFB2E001C01D92AF35B207E1F750D1B6
:1001200023C76ECF92E09093C0001092C5008093D9
:10013000C40088E18093C100613029F4E1ECF0E073
:1001400080818068808386E08093C2000895E0EC1F
:10015000F0E0908195FFFDCF8093C6000895CF9386
:10016000C82F8A3011F48DE0F2DFE0ECF0E09081EE
:1001700095FFFDCFC093C60080E090E0CF91089539
:100180001F920F920FB60F9211248F93009B06C0FF
:100190008091F7028F5F8093F70205C08091F7028C
:1001A00081508093F70281E08093F8028F910F9045
:1001B0000FBE0F901F9018951F920F920FB60F92BF
:1001C00011248F93019B03C01092F60203C081E0BB
:1001D0008093F60281E08093F5028F910F900FBE1D
:1001E0000F901F9018951F920F920FB60F92112427
:1001F0008F938091FA02811103C081E08093FA020B
:100200001092F7028F910F900FBE0F901F901895CC
:100210001F920F920FB60F9211240F900FBE0F90E6
:100220001F901895009741F0EFEFFEE03197F1F73E
:1002300000C000000197C1F708950A9A0A9A279A08
:10024000129813982F980895E2E0F1E08081877E5C
:1002500080837398A5980895E2E0F1E08081877E1D
:100260008083739AA59A089510920F0310920E033B
:10027000109217031092160310920D0310920C03A4
:1002800010920B0310921303109212031092110399
:1002900010921003813011F4D7DF01C0DDDF10921E
:1002A000180381E0809308030895E2E0F1E0808183
:1002B000806180838081877F80837398A59A089569
:1002C0001092130310921203109217031092160348
:1002D000109215031092140310920B031092010355
:1002E000E4DF10920D0381E080930F0310920E0360
:1002F0000895E2E0F1E080818F7E808380818860D4
:100300008083739AA598089510921703109216038C
:1003100010921103109210031092150310921403FF
:1003200010920103E6DF10920C0381E080930E032C
:1003300010920F030895E1E0F1E0808188618083ED
:100340006B9A9D9A81E090CF8FE092E046D312980D
:100350002F9881E080930A03089584E192E03DC3E1
:1003600088E192E03AC350980898519809985298B9
:100370008BB185608BB9109A8DB387608DBBE9E630
:10038000F0E080818A60808380818F7E808380819D
:100390008F7D80830895F8948AE090E043DFE3DF67
:1003A00061E08FECBFDE81E092E090935C0380938C
:1003B0005B0343DFC0DF8AE090E034DF7894089588
:1003C00088E190E090930703809306038AE090E031
:1003D000909305038093040310920A03109209037B
:1003E000109218031092010310920F0310920E0343
:1003F000109200031092FF021092FE021092FD0272
:1004000081E08093000210920D0310920C03109271
:100410001303109212031092110310921003109202
:100420000B031092F7021092F9021092F802109248
:10043000FA0288E290E0909303038093020383E042
:100440008093F402A8DF88E292E0C7D288EE93E0BE
:10045000E9DE12982F9888EE93E0E4DE81DF1092B7
:100460000803EE24E3940F2EF3E0FF2EF02D6894A2
:10047000DD24D1F803E812E0C0E9D2E082E390E0A5
:10048000D1DE80910F03813041F580911603909168
:100490001703019690931703809316032091160378
:1004A00030911703809106039091070328173907AD
:1004B000A1F4109217031092160310920D031092DC
:1004C000130310921203E0920103F092180380E0EC
:1004D000CBDE3ADF8DE292E080D280910E03813054
:1004E00039F58091160390911703019690931703A5
:1004F0008093160320911603309117038091040313
:10050000909105032817390799F410921703109258
:10051000160310920C031092110310921003D09244
:100520000103F092180380E09FDE84E592E055D24B
:10053000809101038230E9F4809100028130C9F496
:100540008091FF02909100030196909300038093A5
:10055000FF028091FF0290910003019751F41092E5
:1005600000031092FF02E0921803AADE8BE792E0EC
:1005700034D280910803813089F4109208032091CD
:10058000F702822F992787FD90959F932F931F93B2
:100590000F9312D20F900F900F900F908091F8024E
:1005A000813009F06BCF1092F8028091F90220910E
:1005B000F7021F928F93822F992787FD90959F9323
:1005C0002F93DF93CF93F8D10F900F900F900F9050
:1005D0000F900F9053CFE2E0F1E08081877E80831F
:1005E0007398A5980895E2E0F1E0808180618083AE
:1005F0008081877F80837398A59A0895E2E0F1E077
:1006000080818F7E8083808188608083739AA598A3
:1006100008951F920F920FB60F9211240BB60F92EE
:100620002F933F934F935F936F937F938F939F93FA
:10063000AF93BF93EF93FF938091FA028130F9F06B
:100640008091F5028130D9F41092F5028091F60282
:10065000813059F4C8DF8091020390910303E2DDF9
:10066000BADF8DE992E0B9D10AC0C8DF80910203F8
:1006700090910303D7DDAFDF81EA92E0AED1FF9125
:10068000EF91BF91AF919F918F917F916F915F910A
:100690004F913F912F910F900BBE0F900FBE0F9077
:1006A0001F9018951F920F920FB60F9211240BB640
:1006B0000F922F933F934F935F936F937F938F93FB
:1006C0009F93AF93BF93EF93FF939091C600809158
:1006D000F302882321F0813009F028C109C09A3043
:1006E00009F024C181E08093F3021092F2021EC14E
:1006F0009D3009F011C11092F3028091F202E82FAF
:10070000F0E0E75EFC4F1082882309F402C144E068
:1007100050E069E173E085EA92E038D1282F392F63
:10072000232B71F4129A2F9A18DEEEDD82E080936B
:1007300018031092FC021092FB021092F702E9C01B
:1007400045E050E069E173E08AEA92E01FD1282F8A
:10075000392F232B21F481E080930903DAC044E090
:1007600050E069E173E080EB92E010D1282F392F3F
:10077000232BC9F48DE193E0ECD0282F392F30934F
:1007800007032093060380910603909107039F932C
:100790008F9385EB92E09F938F930ED10F900F90E4
:1007A0000F900F90B6C046E050E069E173E08DEB2A
:1007B00092E0ECD0282F392F232BC9F48FE193E05E
:1007C000C8D0282F392F3093030320930203809140
:1007D0000203909103039F938F9384EC92E09F9385
:1007E0008F93EAD00F900F900F900F9092C044E03B
:1007F00050E069E173E08EEC92E0C8D0282F392FE9
:10080000232B51F48091FA02811103C081E080937F
:10081000FA021092F7027DC042E050E069E173E015
:1008200082EB92E0B3D0282F392F232BD1F4809183
:100830001B03863419F0823581F408C0D4DE809120
:10084000020390910303EEDCC6DE07C0D7DE809181
:10085000020390910303E6DCBEDE89E193E0BDD0A4
:1008600058C044E050E069E173E083ED92E08ED03F
:10087000282F392F232B61F480911D03803321F021
:10088000813309F046C002C0139843C0139A41C097
:1008900044E050E069E173E088ED92E077D0282FE2
:1008A000392F232B99F48DE193E053D08093F402F8
:1008B0008091F4021F928F938DED92E09F938F931E
:1008C0007BD00F900F900F900F9023C044E050E02A
:1008D00069E173E085EE92E059D0282F392F232B60
:1008E000C1F48DE193E035D0282F392F30930503E3
:1008F0002093040380910403909105039F938F93A9
:100900008AEE92E09F938F9357D00F900F900F90A5
:100910000F901092F2020AC08091F202E82FF0E0EC
:10092000E75EFC4F90838F5F8093F202FF91EF911F
:10093000BF91AF919F918F917F916F915F914F91F7
:100940003F912F910F900BBE0F900FBE0F901F90F5
:100950001895FC0188279927E89421912032E9F322
:10096000293010F02E30C8F32B3239F02D3231F40B
:10097000689403C019D0820F911D219120532A3011
:10098000C8F31EF4909581959F4F0895FB01DC01FB
:100990004150504030F08D910190801919F40020A1
:1009A000B9F7881B990B08957AE0979F902D879F40
:1009B000802D910D11240895CF93DF93CDB7DEB72D
:1009C000FE01369661917191AF0180915B03909128
:1009D0005C0332D0DF91CF9108950F931F93CF9393
:1009E000DF938C01E0915B03F0915C03838181FFD5
:1009F0001BC0C0E0D0E005C01995892B11F0CFEFE6
:100A0000DFEFF80181918F0160915B0370915C03CE
:100A1000DB011896ED91FC9119978111EDCF8AE0D9
:100A20001995892B09F402C0CFEFDFEFCE01DF91DA
:100A3000CF911F910F9108952F923F924F925F9205
:100A40006F927F928F929F92AF92BF92CF92DF92DE
:100A5000EF92FF920F931F93CF93DF93CDB7DEB743
:100A60002C970FB6F894DEBF0FBECDBF7C016B0193
:100A70008A01FC0117821682838181FFB9C1882413
:100A80008394912C8C0E9D1EF7019381F60193FDAA
:100A9000859193FF81916F01882309F4A5C1853267
:100AA00039F493FD859193FF81916F01853221F493
:100AB000B70190E0CFD1E8CF512C312C20E020328B
:100AC000A8F48B3261F028F4803251F0833271F453
:100AD0000BC08D3239F0803349F4216028C0226088
:100AE000246025C0286023C0206121C027FD27C0C5
:100AF000382F30533A3078F426FF06C0FAE05F9E74
:100B0000300D1124532E13C08AE0389E300D11246D
:100B1000332E20620CC08E3221F426FD65C1206484
:100B200006C08C3611F4206802C0883641F4F60104
:100B300093FD859193FF81916F018111C0CF982F13
:100B40009554933018F09052933028F40C5F1F4F57
:100B5000FFE3F9830DC0833631F0833771F08335BD
:100B600009F05AC022C0F801808189830E5F1F4FAF
:100B700044244394512C540114C03801F2E06F0E08
:100B8000711CF801A080B18026FF03C0652D70E0C4
:100B900002C06FEF7FEFC5012C8751D12C0183017B
:100BA0002C856FE7262E222217C03801F2E06F0E47
:100BB000711CF801A080B18026FF03C0652D70E094
:100BC00002C06FEF7FEFC5012C872ED12C012C8541
:100BD00050E8252E222A830123FC1AC005C0B70144
:100BE00080E290E037D13A94832D90E04816590680
:100BF000B0F30EC0F50127FC859127FE81915F01BE
:100C0000B70190E027D131103A94F1E04F1A510822
:100C10004114510479F7E5C0843611F0893639F56D
:100C2000F80127FF07C060817181828193810C5F89
:100C30001F4F08C060817181882777FD8095982FAC
:100C40000E5F1F4F4FE6B42EB22297FF09C090955A
:100C50008095709561957F4F8F4F9F4FF0E8BF2A29
:100C60002AE030E0A40122D1A82EA81842C085377E
:100C700031F43FEEB32EB2222AE030E024C099EFE7
:100C8000B92EB2228F36B9F020F4883509F0ACC005
:100C90000DC0803721F0883709F0A6C002C020E1DE
:100CA000B22AB4FE0BC084E0B82A08C024FF09C0F1
:100CB000E6E0BE2A06C028E030E005C020E130E0D2
:100CC00002C020E132E0F801B7FE07C06081718107
:100CD000828193810C5F1F4F06C06081718180E02B
:100CE00090E00E5F1F4FA401E1D0A82EA818FFE7E7
:100CF000BF22B6FE0BC02B2D2E7FA51450F4B4FEE0
:100D00000AC0B2FC08C02B2D2E7E05C07A2C2B2DDC
:100D100003C07A2C01C0752C24FF0DC0FE01EA0D22
:100D2000F11D8081803311F4297E09C022FF06C0A5
:100D30007394739404C0822F867809F0739423FD12
:100D400013C020FF0EC05A2C731458F4530C5718BC
:100D5000732C07C0B70180E290E02C877BD073949E
:100D60002C857314B8F304C0731410F4371801C041
:100D7000312C24FF11C0B70180E390E02C876AD0AA
:100D80002C8522FF1CC021FF03C088E590E002C033
:100D900088E790E0B7010CC0822F867881F021FDB2
:100DA00002C080E201C08BE227FD8DE2B70190E036
:100DB00051D005C0B70180E390E04CD05A94A514FF
:100DC000C8F3AA94F401EA0DF11DB701808190E007
:100DD00041D0A110F6CF05C0B70180E290E03AD033
:100DE0003A943110F9CF50CEF7012681378102C0F5
:100DF0002FEF3FEFC9012C960FB6F894DEBF0FBE60
:100E0000CDBFDF91CF911F910F91FF90EF90DF90B9
:100E1000CF90BF90AF909F908F907F906F905F909A
:100E20004F903F902F900895FC01059061507040C5
:100E30000110D8F7809590958E0F9F1F0895FC01A3
:100E40006150704001900110D8F7809590958E0FF9
:100E50009F1F08950F931F93CF93DF938C01EB0196
:100E60008B8181FD03C00FEF1FEF1AC082FF0DC001
:100E70002E813F818C819D812817390764F4E88198
:100E8000F9810193F983E88306C0E885F985802F0D
:100E90001995892B41F78E819F8101969F838E83BF
:100EA000C801DF91CF911F910F910895FA01AA27F0
:100EB000283051F1203181F1E8946F936E7F6E5F9D
:100EC0007F4F8F4F9F4FAF4FB1E03ED0B4E03CD04B
:100ED000670F781F891F9A1FA11D680F791F8A1F2E
:100EE000911DA11D6A0F711D811D911DA11D20D095
:100EF00009F468943F912AE0269F11243019305D4F
:100F00003193DEF6CF010895462F4770405D41933F
:100F1000B3E00FD0C9F7F6CF462F4F70405D4A338C
:100F200018F0495D31FD4052419302D0A9F7EACF54
:100F3000B4E0A6959795879577956795BA95C9F783
:100F400000976105710508959B01AC010A2E069476
:100F50005795479537952795BA95C9F7620F731F2F
:0C0F6000841F951FA01D0895F894FFCF7A
:100F6C00010000000200000000AF0000000000645F
:100F7C006F6E650061636B00446576696365205232
:100F8C00656164792E2E2E00696E6974004D6F7444
:100F9C006F7220666F7277617264204D6F76652078
:100FAC0074696D65206C696D697420726561636824
:100FBC00656421004D6F746F722072657665727373
:100FCC0065204D6F76652074696D65206C696D695F
:100FDC007420726561636865642100424C505354FF
:100FEC004C520053746F707065643A2025640A008B
:100FFC004D50433A25642C643A25640A006D3A46F8
:10100C00006D3A5200646F776E007265616479000E
:10101C0070776D3A0070776D3A25640A0064656CE0
:10102C0061793A0064656C61793A25640A00746FE1
:10103C006E65006C65643A00706F733A00706F7384
:10104C003A25640A007265763A007265763A256430
:02105C000A0088
:00000001FF
